:020000040000FA
:10000000880D0010F9000000650800003D080000A0
:1000100051080000E1010000451900000000000047
:100020000000000000000000000000000B010000C4
:100030000D010000000000000F0100001101000090
:100040001301000013010000130100001301000060
:100050001301000013010000130100001301000050
:100060001301000013010000130100001301000040
:100070001301000000000000130100001301000044
:100080001301000013010000130100001301000020
:100090001301000013010000130100001301000010
:1000A0001301000013010000130100001301000000
:1000B00013010000130100001301000013010000F0
:1000C00013010000130100001301000013010000E0
:1000D00013010000130100001301000013010000D0
:1000E00013010000DFF80CD000F068F8004800476A
:1000F0000D2D0000880D0010064880470648004777
:10010000FEE7FEE7FEE7FEE7FEE7FEE7FEE7FEE7C7
:10011000FEE7FEE7F1140000E50000002DE9F05FC6
:100120000546002092469B46884606468146402466
:100130001BE0284641464746224600F02FF853462A
:100140005A46C01A914110D311461846224600F073
:1001500016F82D1A67EB01084F46224601200021B0
:1001600000F00DF817EB00094E41201EA4F1010428
:10017000DFDC484631462A464346BDE8F09F202A48
:1001800004DB203A00FA02F1002070479140C2F1EE
:10019000200320FA03F3194390407047202A04DB20
:1001A000203A21FA02F00021704721FA02F3D040F0
:1001B000C2F120029140084319467047064C074D92
:1001C00006E0E06840F0010394E807009847103427
:1001D000AC42F6D3FFF78AFF84380000A438000051
:1001E00001A001F0DBFBFEE74275734661756C749C
:1001F0000A000000064A012906D0002903D152F85E
:10020000C41F81431160704752F8C41F0143F9E7CE
:1002100000C00F4030B1012806D0022806D00328C4
:1002200006D0FEE7044804E0044802E0044800E089
:10023000044800687047000000000010040000102F
:10024000080000100C00001010B506A001F0A6FB7D
:10025000074800210170022101710549054808394C
:10026000486010BD4446553A41424F52540A00007E
:10027000200000100040000010B506A001F08EFB29
:100280000848002101700221017106490648083919
:10029000486010BD4446553A434C5253544154555E
:1002A000530A0000200000100040000010B5044672
:1002B00003A001F073FB064820600120606010BDC0
:1002C0004446553A47455453544154450A000000AA
:1002D0001800001010B5044603A001F05FFB0648AB
:1002E00020600620606010BD4446553A474554538F
:1002F00054415455530A000020000010FFFFFFFF37
:1003000070B5044612A001F049FB14482060208A11
:100310006060A189124E134D06EB412100286960EF
:1003200014D011A001F03AFB208A696801441148F9
:10033000321805F10800914203D8032129700521E4
:1003400003E00A21297008220270017170BD0000CB
:100350004446553A444E4C4F41440A00B800001000
:10036000004000001800001057524954453A20251B
:10037000700A000000C0070070B504460DA001F02F
:100380000DFB0F4909200F4A0870A0890E4D02EBA2
:1003900040204860218A2A440B18934202D8C4E9BD
:1003A000000170BD09A001F0F9FA00206060012091
:1003B000207270BD4446553A55504C4F41440A0096
:1003C000180000100040000000C0070055706C6F5E
:1003D000616420436F6D706C657465210A000000D4
:1003E00003480078082801D000207047012070479A
:1003F00018000010817A01F07F01212914D1C17AFF
:10040000072911D2DFE801F0100406080A0C0E00DB
:10041000FFF776BFFFF7B0BFFFF75CBFFFF72CBF5A
:10042000FFF744BFFFF710BF7047000010B5064844
:1004300002F0C2FF044805490E384160BDE8104093
:1004400003A001F0ABBA000026000010004000003D
:100450007573657220666C6173683A2025700A00B6
:100460002DE9F0410446807A00F07F00212833D145
:10047000224EE07AA6F108050128696812D0022808
:1004800035D0032828D1317929701DA001F086FAD2
:100490002878082820D102F055FFBDE8F0411DA0C2
:1004A00001F07CBA208A0627F0B124A001F076FA88
:1004B0006868A0F58040C00B02F0E2FD4FF40072C6
:1004C0002149686803F040F9010007D01FA001F03E
:1004D00065FA37700A203071BDE8F081208A6968BA
:1004E000084468600520F6E72F700820F3E709202C
:1004F0003071208A08446860EEE700002000001098
:100500006E65772073746174652069732025640AB1
:10051000000000004D414E494645535420434F4D85
:10052000504C4554452C2075736220646973636F89
:100530006E6E65637465640A00000000575249548A
:10054000452025700A000000B80000107772697419
:100550006520666C617368206572726F7220256415
:100560000A0000000448807A10F07C0F02D0024894
:10057000FFF776BF704700003409001070B51A4CC1
:10058000607A002818D12146A07A4A6800064FF008
:1005900001051DD58AB1402A00D94022802021685A
:1005A00003F078F86168091A6160226802442260E9
:1005B00002D1402800D1257270BD207A0028FBD0DE
:1005C00000221146802003F065F80020207270BDE3
:1005D000002AFCD11146802003F05CF86572BDE86A
:1005E0007040FFF7BFBF00003409001010B51B4C6E
:1005F000607A38B104F114014022BDE810400020B7
:1006000002F0E0BE1549A07A4A68000615D462B12E
:100610000020216802F0D6FE6168814214DB091ACD
:10062000616021680844206010BD00221146104618
:1006300002F0C8FE0028F7D006E02AB900221146D1
:10064000104602F0BFFE18B1BDE8104002F07CBEBB
:1006500001206072BDE81040FFF784BF340900102C
:1006600010B508222049002002F0ACFE082839D13C
:100670001D4800210A38417200F114010160018A0D
:100680004160817A11F07C0F03D0BDE81040FFF784
:10069000B1BEC17A0A2921D2DFE801F00524202465
:1006A00020091324171BBDE8104002F0DFBC007BBB
:1006B00000F0D8FD0022BDE810401146802002F075
:1006C000E9BFBDE8104002F09BBCBDE8104002F05D
:1006D0008FBCBDE81040012000F078BDBDE810409F
:1006E00002F032BE10BD00003E09001000F006B856
:1006F00000F031B800F036B800F042B810B50C4642
:1007000000F004F8002800D0C46110BD01460020AC
:10071000062905D2DFE801F00305080B0E11084891
:1007200070470748203070470548403070470448FC
:10073000603070470248803070470148A0307047F1
:10074000008009200121C803FFF754BD0AB100F061
:1007500017B8FFF7D3BF10B5FFF7D8FF002800D0B8
:10076000406910BD70B515460C46FFF7CFFF002855
:1007700005D001680DB1214300E0A143016070BDC7
:1007800010B50C46FFF7C2FF002800D0846110BDF1
:1007900000F01F0201219140C0F34210FFF7A6BFF5
:1007A00010B50446C0F34210FFF7A2FF04F01F0289
:1007B00001219140084000D0FF2010BD10B5044633
:1007C000FFF7C0FF2046BDE8104000F017B8002139
:1007D00000F00BB8012100F008B800F01F02012161
:1007E0009140C0F34210FFF787BF0A4600F01F0395
:1007F00001219940C0F34210FFF77CBF70B500F0B3
:100800001F05C0F3421400222946204600F032F8AA
:1008100029462046BDE87040022200F089B870B534
:100820000C460546FFF7D6FF28461CB1BDE87040D0
:10083000FFF7D3BFBDE87040FFF7AABF01A001F0EA
:10084000ADF8FEE7486172644661756C740A000099
:1008500001A001F0A3F8FEE74D656D4D616E616783
:10086000650A000001A001F099F8FEE74E4D490A23
:100870000000000070B514460D46064600F014F85E
:1008800005280CD02946304600F074F8016804F0C1
:10089000070221F0070111430160002070BD0148EB
:1008A00070BD00000100001002460520062A15D286
:1008B000DFE802F0032B3232323406292CD9A1F1C1
:1008C0000A02012A28D9121F082A25D90C2904D086
:1008D0000D2902D0093A032A01D8012070471D29A9
:1008E0000FD01E290DD01F290BD01B290BD01C297E
:1008F00009D0072903D0082901D00929EED1042005
:10090000704702207047032070471D2904D91E2913
:10091000E3D01F29E1D07047002070470129FBD99F
:100920000429F9D00229EED00329ECD07047000049
:1009300070B514460D460646FFF7B6FF052806D0EB
:1009400040B1012806D0042804D0094870BD0848E9
:10095000401E70BD2946304600F00CF80168182290
:1009600021F0180102EAC40211430160002070BDA9
:100970000200001001EB4010014901EB80007047BC
:1009800000C0024010B5012240210020FFF7EAFE1E
:10099000012240210020FFF7D9FEBDE8104000F001
:1009A00089BB000070B50C46054600F079FBE8B243
:1009B00040F0400000F0A4FB200E00F0A1FBC4F3C7
:1009C000074000F09DFBC4F3072000F099FBE0B264
:1009D00000F096FB952000F093FB00244FF4805626
:1009E000FF2000F08DFB0546000606D400F05DFBFD
:1009F000FF2000F085FB284670BD641CB442EFDB8D
:100A000005A000F0CBFF00F050FBFF2000F078FBCA
:100A10004FF0FF3070BD000054696D656F75740D47
:100A20000A0000002DE9F041044600F039FB7A206D
:100A300000F066FB002000F063FB0025284600F074
:100A40005FFB284600F05CFB284600F059FB952030
:100A500000F056FB4FF48057FF2000F051FB064694
:100A6000000620D4FF2000F04BFB00062060FF2092
:100A700000F046FB216841EA00402060FF2000F0C2
:100A80003FFB216841EA00202060FF2000F038FB96
:100A900021680843206000F008FBFF2000F030FBD5
:100AA0003046BDE8F0816D1CBD42D5DB00F0FDFA9B
:100AB000FF2000F025FB4FF0FF30F2E77CB500F09F
:100AC000EFFA482000F01CFB002000F019FB00208A
:100AD00000F016FB012000F013FBAA2000F010FB31
:100AE000872000F00DFB00244FF47A15FF2000F062
:100AF00007FB8DF80000000610D401246D46FF208E
:100B000000F0FEFA2855641C052CF8DB00F0CDFA45
:100B1000FF2000F0F5FA9DF800007CBD641CAC429B
:100B2000E4DB00F0C2FAFF2000F0EAFA4FF0FF30F9
:100B30007CBD000070B50C46054600F0B1FAE8B285
:100B400040F0400000F0DCFA200E00F0D9FAC4F3C7
:100B5000074000F0D5FAC4F3072000F0D1FAE0B264
:100B600000F0CEFA952000F0CBFA00244FF4805527
:100B7000FF2000F0C5FA01060CD5641CAC42F7DB7F
:100B800005A000F00BFF00F090FAFF2000F0B8FA8B
:100B90004FF0FF3070BD000054696D656F75740DC6
:100BA0000A00000070B50D46064600F079FAFF20F5
:100BB00000F0A6FAFE28FAD1002403E000F0A0FA23
:100BC0003055641CAC424FF0FF00F7DB00F098FAA0
:100BD000FF2000F095FA00F068FAFF2000F090FA8C
:100BE000002070BD2DE9FF4100210920FFF7A2FF81
:100BF00008B12BA005E010216846FFF7D3FF18B11C
:100C000031A000F0CBFE12E07E227F21684601F089
:100C10001BFD0446014636A000F0C0FE39490125FF
:100C20004CB1012C2DD0214637A000F0B7FE00209A
:100C300004B0BDE8F081486803281DD03E22492158
:100C4000684601F001FD06462F223121684601F079
:100C5000FBFC074650225321684601F0F5FC05FADB
:100C600000F4BF1CBD40761C06FB05F1B4F5007F07
:100C700004D3600A4843DBE728A0C2E76143480A7F
:100C8000D6E74868032801D02EA0BAE730224521D4
:100C9000684601F0D9FC800200F58060C8E70000DA
:100CA0004469646E277420676574206120726573DF
:100CB000706F6E73652066726F6D20746865206456
:100CC00069736B0D0A000000436F756C646E2774C6
:100CD00020726561642063736420726573706F6E47
:100CE00073652066726F6D206469736B0D0A000076
:100CF0004353445F535452554354203D2025640DC3
:100D00000A000000A8000010496E76616C6964203A
:100D100043534420256C750D0A000000534448439A
:100D20002063617264207769746820726567756CEE
:100D300061722053442064657363726970746F72CA
:100D4000210D0A005344205631206F722056322064
:100D50006361726420776974682053444843206457
:100D6000657363726970746F72210D0A0000000070
:100D700070B50D46064600F093F9FE2000F0C0F96C
:100D8000002403E0305D00F0BBF9641CAC42F9DBE9
:100D9000FF2000F0B5F9FF2000F0B2F9FF2000F0CD
:100DA000AFF900F01F00052806D000F07EF9FF2003
:100DB00000F0A6F9012070BDFF2000F0A1F9002885
:100DC000FAD000F072F9FF2000F09AF9002070BD0F
:100DD0004FF400707047000010B50A4C00202060EE
:100DE00000F09EF860B1FFF7FDFE20604FF4007147
:100DF0001020FFF7D7FD002803D003A000F0CEFDA0
:100E0000012010BDA8000010536574203531322D2B
:100E10006279746520626C6F636B2074696D6564C0
:100E2000206F75740D0A00002DE9FC411C4E0D4623
:100E30006C0271680746012905D0022903D00329F5
:100E400020D0002006E0204601291ED002291CD017
:100E5000032918D00022CDE900202B461A4611A004
:100E600000F09CFD7068012811D002280FD00328E3
:100E700000D0002529461120FFF794FD48B101203C
:100E8000BDE8FC8128462A46E5E70246E3E7254619
:100E9000F0E74FF400713846FFF784FE0020EFE7DB
:100EA000A800001053443A7265616420747970653B
:100EB0002025643A20256428257829202D3E2025E8
:100EC00064282578290D0A00014800687047000051
:100ED000A80000100348006808B1002070470120F6
:100EE00070470000A800001010B504460B48426887
:100EF000012A0AD0022A08D0032A00D00021182093
:100F0000FFF750FD18B1012010BD4902F7E74FF47B
:100F100000712046FFF72CFF002010BDA800001034
:100F200070B500F0C2F80024FF2000F0E9F8641C5E
:100F3000102CF9DB00210846FFF734FD00250C4C8E
:100F4000012801D00BA006E0FFF7B8FD012807D06B
:100F5000052809D013A000F021FD2846656070BD6A
:100F6000BDE8704000F068B8BDE8704000F038B8E7
:100F7000A8000010436F756C64206E6F742070754C
:100F800074205344206361726420696E20746F2062
:100F90005350492069646C652073746174650D0A4F
:100FA000000000004E6F7420696E2069646C65203B
:100FB00073746174652061667465722073656E6414
:100FC000696E6720434D443820286E6F7420616E2F
:100FD00020534420636172643F290D0A0000000021
:100FE00070B500244FF4805500213720FFF7DAFC5C
:100FF00000212920FFF7D6FC38B1641CAC42F3DB9A
:1010000004A000F0CBFC002070BD0A49012048601C
:1010100070BD000054696D656F75742077616974E7
:10102000696E6720666F722076312E782063617258
:10103000640D0A00A8000010F8B500240F4D4FF011
:101040008047BE1400213720FFF7ACFC3946292029
:10105000FFF7A8FC38B1641CB442F3DB08A000F031
:101060009DFC002008E06846FFF7DCFC009840008B
:1010700001D5032000E002206860F8BDA800001040
:1010800054696D656F75742077616974696E672046
:10109000666F722076322E7820636172640D0A00CA
:1010A000002240211046FFF751BB012240210020C1
:1010B000FFF74CBB10B586B0022207210020FFF7D6
:1010C000D9FB022208210020FFF7D4FB02220921CC
:1010D0000020FFF7CFFB684600F008F90648074CF0
:1010E00005906946204600F013F90121204600F0E2
:1010F000F2F806B010BD000000093D0000000340FA
:1011000070B506460024104D03E0641CE4B2FA2CCE
:1011100005D00121284600F0F5F80028F5D0314629
:10112000284600F044F9002403E0641CE4B2FA2CE1
:1011300005D00421284600F0E5F80028F5D028461F
:1011400000F032F9C0B270BD000003400749302200
:10115000C1F808224FF4A06242EA0040C1F8100230
:10116000D1F80002C006FBD57047000000C008207F
:1011700008492022C1F808220A1542EA0040C1F8B5
:101180001002D1F800028006FBD5D1F81402C0B2DB
:101190007047000000C0082006491022C1F808224C
:1011A0004A1542EA0040C1F81002D1F80002C00618
:1011B000FBD5704700C0082000B572B6F220FFF7DB
:1011C000C5FFF220FFF7D4FF62B600BD00B50346AD
:1011D00072B6D820FFF7BAFF1846FFF7DDFF62B6F8
:1011E00000BD00B500F00FF840F001005DF804EB21
:1011F00000F044B800B500F006F820F001005DF8FA
:1012000004EB00F03BB800B572B6FE20FFF79EFF7E
:10121000FE20FFF7ADFF62B600BD00B572B6010754
:10122000C90E41EAD0100346FFF790FF1846FFF7BA
:101230009FFF62B600BD000072B60107C90E41EA09
:10124000D010012181400648C0F83812D0F80012B1
:101250008906FBD5D0F81402C0B262B67047000010
:1012600000C0082000B5034672B6D020FFF76EFF1D
:1012700043F08000FFF790FF62B600BD00B5034663
:1012800072B6FE20FFF762FF1846FFF785FF62B6D1
:1012900000BD00B50B4672B60107C90E41EAD01079
:1012A00040F04000FFF752FF1846FFF775FF62B6A7
:1012B00000BD00B5034672B6F320FFF747FF18469E
:1012C000FFF76AFF62B600BD00B572B6FA20FFF7FD
:1012D0003DFF62B600BD0129416803D001F00D0158
:1012E0004160704741F00201FAE7000000214160CF
:1012F000034A426181600722C16002600161704758
:1013000040420F00C068084000D001207047000034
:1013100070B5044621480D46844202D1012148059A
:101320000AE01F48844202D10121001504E01D4853
:10133000844232D101210805FEF75CFFA888298983
:101340002A880843298A1143084380B22060287BF9
:1013500000F00F0060606D690120FEF75BFF002167
:1013600003464A1E02200AE04A1C4243B3FBF2F243
:10137000AA4204D9491CFF2901D90021801CAA4294
:10138000F2D82268D2B2226022684FF6FF7303EAD5
:1013900001210A432260C0B2206170BD0080084074
:1013A0000000034000C00A40806880B2704781603E
:1013B00070470000F0B54B4CD4F804014FF0000228
:1013C000C105494828D4D4F80C11484BC90703D0AB
:1013D000D4F8A01149065FD5D4F80411C90605D088
:1013E000D4F8041101F01F01B3FBF1F10160D4F84E
:1013F000A851ED060ED0D4F8A85105F01F05B3FB97
:10140000F5F34360D4F8003103F001035B1CB1FB3A
:10141000F3F131E00023F4E7D4F88810C9053BD597
:10142000D4F80C11C90703D0D4F8A011490633D55C
:10143000D4F8881001F01F03D4F80411D4F8A8518F
:1014400011F01F01D4F8006105F01F0506F0010638
:1014500003F1010306F1010603D0244F5F43B7FBFC
:10146000F1F1016025B1214F7B43B3FBF5F300E0BF
:101470000023B1FBF6F143608160D4F80811C9057F
:10148000D4F808111CD511F01F0103D0042907D08E
:10149000062905D0C260F0BD026042608260ECE7C0
:1014A000D4F88810D4F8082101F01F01D4F80C31C9
:1014B00002F01F020D4B491C5943B1FBF2F10FE042
:1014C0008905E7D5D4F80C11C90702D0D4F8A810C3
:1014D00001E0D4F88810054A01F01F01491C51436E
:1014E000C160F0BD00C00F4000000010001BB7003D
:1014F000254810B42121C0F8A011D0F8A011490648
:10150000FBD50122C0F80C210921C0F88410C0F8D5
:101510008020AA23C0F88C305524C0F88C40D0F825
:1015200088104905FBD52321C0F8A410C0F8A020DD
:10153000C0F8AC30C0F8AC40D0F8A8104905FBD5D5
:1015400040F20111C0F8041140F20121C0F8081165
:10155000C0F800210221C0F8A8110C49C0F8C4103D
:101560004FF48071C0F8C811D0F8B01141F00301F8
:10157000C0F8B01145F23A01016005490020086049
:1015800010BCFFF717BF000000C00F40DE87280423
:1015900008ED00E0002105280AD2DFE800F003058D
:1015A0000D0F1100094800E00948007D00F04001DE
:1015B000480608D5002070470648F6E70648F4E7D5
:1015C00006484069F2E701207047000000C0004073
:1015D000000001400080094000C0094000400A406E
:1015E0004FF4E131016003214171002101718171EA
:1015F00070470000CB78012223B1012B06D0022BCB
:1016000006D0C1224B78012B04D005E04122F9E736
:101610008122F7E742F004020B78012B01D142F05E
:1016200002028978012901D142F00802052814D26A
:10163000DFE800F003070B0F140002F0CF000A49A7
:101640000AE002F0CF00094906E002F0CF000849A5
:1016500002E0084902F0CF0008727047064902F024
:10166000CF0088607047000000C0004000000140CB
:101670000080094000C0094000400A4000218170FC
:10168000C170012101704170704700002DE9F05FC9
:1016900005460027DFF88881DFF888A10E464FF065
:1016A00007094FF0800B052D70D2DFE805F00331FC
:1016B00003035300284601F071FD044625B1022DB5
:1016C00005D0032D06D009E00121082004E0012106
:1016D000080601E001214806FEF78CFD84F8089019
:1016E000277200E02078207DC007FBD184F830B05D
:1016F000207D8006FCD584F83070676027732762F0
:1017000084F84C7084F8547084F85070207D3DE06B
:1017100001211020FEF76EFD404688F8089088F8F9
:10172000087000E00178017DC907FBD180F830B076
:10173000017D8906FCD580F8307047600773076229
:1017400080F84C7080F8547080F85070017D0774F8
:10175000007E1BE001210802FEF74CFD5046CAF84E
:101760000890CAF8087000E001684169C907FBD118
:101770000121C16541698906FCD5C7654760C7601D
:101780000762C76447650765416947622846316853
:1017900001F018FD012D1CD0042D1CD0284601F0AD
:1017A000FDFC007B00F0C004707928B1012815D041
:1017B000022816D044F003043079E8B144F008045C
:1017C000012819D002280FD0032810D0042813D1E3
:1017D00010E04046E5E7DAF80C00E3E744F00104E6
:1017E000EAE744F00204E7E744F0100404E044F0C0
:1017F000200401E044F03004B079012801D144F024
:101800000404012D07D0042D07D0284601F0C6FCA2
:101810000473BDE8F09F4046FAE7CAF80C40F8E7C9
:101820000000014000400A4005280CD2DFE800F02B
:10183000030507090C00064804E0064802E00648D4
:1018400000E00648017070470548016070470000DD
:1018500000C00040000001400080094000C0094075
:1018600000400A4010B5164B164A01290AD0002440
:1018700001281ED0042820D001F090FC10F8301F61
:10188000047010BD012809D004280DD001F086FC99
:1018900010F8301F41F08001017010BD13F8300FB7
:1018A00040F08000187010BDD06D40F00100D06590
:1018B00010BD13F8300F1C7010BDD06DD46510BD75
:1018C0000000014000400A400B4810B5007808288D
:1018D00003D0062801D007280DD101F033FDBFF356
:1018E0004F8F06480168064A01F4E0611143016028
:1018F000BFF34F8FFEE710BD180000100CED00E0A5
:101900000400FA053EB50446012202210020FEF73C
:10191000B1FF012203210020FEF7ACFF6846FFF76C
:101920005FFE694600200094FFF7B0FE02A8FFF7B3
:10193000A5FE02A90020FFF75DFE01210020FFF7B0
:1019400091FF3EBD01A000F029F8FEE755736167E5
:10195000654661756C740A004FF08040017821F093
:1019600004010170704700B572B600F002F862B66B
:1019700000BDAA21480701725521017270474FF03E
:10198000804118B1012805D000207047087800F088
:1019900008007047087800F0040070470FB4054B4A
:1019A00010B503A9044A029800F018F810BC5DF8BD
:1019B00014FB0000172C0000B400001002E008C85F
:1019C000121F08C1002AFAD170477047002001E0B9
:1019D00001C1121F002AFBD1704700002DE9FF4F03
:1019E0008DB09B460F460446002606E025280BD006
:1019F0005A460F999047641C761C20780028F5D130
:101A000011B03046BDE8F08F0025A8460122984964
:101A100000E0054314F8013F203B02FA03F00842BE
:101A2000F7D120782E2817D114F8010F45F00405BE
:101A30002A280ED06FF02F022078A0F1300109295A
:101A40000AD808EB880102EB410100EB0108641C95
:101A5000F2E757F8048B641C20786C280DD004DC66
:101A60004C2812D06A2811D104E074280DD07A28AD
:101A70000CD10AE045F4001507E0617845F48015C3
:101A8000814202D1641C05F58015641C2278692A04
:101A900045D008DC002AB3D0582A69D0632A10D078
:101AA000642A08D13BE0702A67D0732A13D0752AC4
:101AB0005CD0782A5CD010465A460F999047761C25
:101AC000D3E017F8040B8DF8000000208DF801001A
:101AD000E946012003E057F8049B4FF0FF30690707
:101AE0004FF0000501D40AE06D1C45450DDA854232
:101AF000FADB19F805100029F6D106E06D1C8542C5
:101B0000FCDB19F805100029F8D12E4404E019F87F
:101B1000010B5A460F9990476D1EF8D2A5E00A2096
:101B20000021CDE90801C5F3025002280DD001CFF4
:101B3000C117031E71F100030DDA4FF0000CD0EB5A
:101B40000C006CEB01012D2308E0FF1D27F00707B7
:101B5000F7E80201EDE72B0504D52B238DF828309B
:101B600001233BE0EB0739D02023F7E70A2000E010
:101B700010200021CDE9080107E01020002145F0E8
:101B80000405CDE908014FF00808C5F3025002280A
:101B90000FD001CF00214FF0000A2B071FD5702A6C
:101BA0000DD0DDE908C38CF0100C5CEA030C0CD0FE
:101BB00015E0FF1D27F00707F7E80201EBE74022D9
:101BC0008DF828204FF0010A0BE050EA010306D0FF
:101BD00030238DF828308DF8292002239A46582A80
:101BE00004D024A20DF120090B9209E026A2F9E706
:101BF000DDE90823FEF792FA0B9B9B5C09F8013D97
:101C000050EA0102F4D1ADEB0900203008906807DA
:101C100001D44FF001080899884502DDA8EB0100C6
:101C200000E000208046002506E00AA85A46405DF4
:101C30000F9990476D1C761C5545F6DB04E030206B
:101C40005A460F999047761CB8F10001A8F1010897
:101C5000F5DC05E019F8010B5A460F999047761C00
:101C60000899481E08900029F4DC641CC5E60000B1
:101C70000928010030313233343536373839616262
:101C80006364656600000000303132333435363726
:101C900038394142434445460000000010B500F089
:101CA00051FB60B10120FFF76AFE50B1FFF754FE0F
:101CB00008A0FFF773FEBDE8104001F001BA0EA0C6
:101CC000F7E74FF480400068401C01D114A0F0E712
:101CD00010BD00005741544348444F47207265737C
:101CE00065742C20656E746572696E672044465574
:101CF000206D6F64650D0A0049535020627574743D
:101D00006F6E20707265737365642C20656E7465E8
:101D100072696E6720444655206D6F64650D0A0038
:101D20005573657220666C61736820656D70747997
:101D30002C20656E61626C696E67204446550D0A01
:101D40000000000010B504460A464078012304F163
:101D5000300100F03DFC08B1032010BDB4F82E1294
:101D6000A1F52A40553801D0022010BD94F8660034
:101D7000B4F8671040EA01210848B0EB012F08D001
:101D800094F88210B4F8832041EA0221B0EB012FCD
:101D900001D1002010BD012010BD000000464154BB
:101DA0002DE9F8430FF2A4082CA730A0FFF7F6FDA9
:101DB000FEF7E8FDFFF710F8002820D131A0FFF76B
:101DC000EDFD3449002000F05FFC0122414632481D
:101DD00000F06AFC002812D130A0FFF7DFFD4FF4BD
:101DE00000756E01344600952B496B462A46243116
:101DF000294800F0F4FC20B1274800F03CFCBDE885
:101E0000F88321462CA0009AFFF7C8FDA4F5804076
:101E1000C00B01F035F920492A462431204601F053
:101E200093FC00980444A842DED01B4800F023FC39
:101E3000B442E4D928A0FFF7B1FD384600F016FE01
:101E40003946404600F059FDD9E700006669726DD9
:101E5000776172652E62696E000000006669726DBE
:101E6000776172652E63757200000000496E6974B7
:101E700069616C697A6520534420636172640D0A5C
:101E800000000000436865636B2053442063617267
:101E9000640D0A00B8020010E8040010466C61737B
:101EA00068696E67206669726D776172653A205362
:101EB00074617274210D0A00616464726573733A0F
:101EC00020307825782C207265616473697A653AD0
:101ED0002025640D0A000000466C617368696E6716
:101EE000206669726D776172653A20436F6D706C20
:101EF000657465210D0A00002DE9F04715460A4674
:101F000001680B78303B092B02D84C783A2C06D06C
:101F10000023002616602BB10B20BDE8F087891C3A
:101F20000160F6E7744804688CB11460207820B131
:101F3000607800F060FBC1070BD02670B1463046D8
:101F4000667000F01BFBC10708D00320E5E70C20FA
:101F5000E3E70DB1400704D40020DEE71DB14007E0
:101F600001D50A20D9E7002631462046FFF7EAFED0
:101F700001280CD104F5F7700179E9B3017AD0F8A2
:101F8000090041EA002631462046FFF7DBFE032820
:101F900001D088BB01E00120BFE7B4F83B00B0F5F9
:101FA000007F57D1B4F8460028B994F85400D4F80B
:101FB000551040EA0120E06194F840108446E17039
:101FC000012901D0022945D194F83D504843A5701C
:101FD00095B16A1E15423DD1B4F841202281110706
:101FE00038D1B4F8431029B994F85010D4F85130CE
:101FF00041EA0321E38F00E02CE05BB31F1807EBFD
:102000001217B94226D3C91BB1FBF5F111B3012553
:1020100040F6F678414500D302254FF6F678414563
:1020200000D303253744891C3344A7622362A1618E
:10203000032D11D072B118446062022D17D001F047
:10204000010001EB410100EB510000F2FF10BCEB7D
:10205000502F0ED20D2060E7002AFBD194F85C00CF
:10206000D4F85D2040EA022060628800EDE7480075
:10207000EBE74FF0FF30C4E903904F46032D31D119
:102080006771B4F86000012382196261607804F11D
:10209000300100F09DFA28BBB4F82E02A0F52A41C9
:1020A00055391FD194F83000D4F8311040EA01209E
:1020B0001249884216D194F81402D4F8151240EA55
:1020C00001200F4988420DD194F81C02D4F81D124A
:1020D00040EA0120E06094F81802D4F8191240EAAE
:1020E0000120206104492570091F0888401C0880D0
:1020F000E080E76227712FE714000010525261411F
:10210000727241618269891E921E8A4201D8002042
:102110007047826A807801FB0020704710B54C2020
:10212000FEF74CFB4C20FEF752FB3220FEF746FB3D
:102130003220FEF74FFB3320FEF740FB3320FEF743
:1021400049FB3420FEF73AFB3420FEF743FB3520F1
:10215000FEF734FB3520FEF73DFB4420FEF72EFB57
:102160004420FEF737FB00214420FEF758FB4520B2
:10217000FEF724FB4520FEF72DFB00214520FEF74E
:102180004EFB4620FEF71AFB4620FEF723FB0021FC
:102190004620FEF744FB4720FEF710FB4720FEF7E2
:1021A00019FB0021BDE810404720FEF738BB2DE9A0
:1021B000F0410F00064606D000F03AFD022809D291
:1021C0000120BDE8F081F56815B1B069A84205D8D5
:1021D000012503E0B1698142F3D83D462C46B06940
:1021E000641CA04202D80224022D0AD321463046A4
:1021F00000F01EFD38B1411CE3D00128E1D0AC4213
:10220000EDD10020DDE76FF070422146304600F04E
:1022100041FE30B957B122463946304600F03AFE09
:1022200020B101280BD001242046CAE7F4603069B0
:10223000411CF9D0401E306101207071F4E74FF06D
:10224000FF34F1E72DE9F04789460C6800E0641C93
:1022500021782F29FBD05C29F9D085690B22202118
:10226000284600F0CDFD0020024617464FF0080C2E
:10227000E15D7F1C202934D92F2932D05C2930D050
:102280002E2901D060450AD3BCF1080F36D12E2982
:1022900034D1082091064FF00B0C0A0EE8E7802994
:1022A00005D3234B42F00302194411F8801C21A3EB
:1022B00000E05B1C1E7816B18E42FAD11EE0A1F13F
:1022C0004103192B02D842F0020207E0A1F1610399
:1022D000192B03D8203942F00102C9B22954401CFD
:1022E000C6E73C44C9F80040202901D8042100E099
:1022F000002118B12878E52803D004E00620BDE8C5
:10230000F08705202870BCF1080F01D19006020E5D
:1023100002F00300012801D141F01001C2F3810055
:10232000012801D141F00801E9720020E7E700002F
:10233000C0370000222A2B2C3A3B3C3D3E3F5B5DE0
:102340007C7F00004C20FEF72BBA2DE9F0410446BB
:10235000C0880E46401C07043F0C2DD0206958B39E
:1023600039075DD1401C2061E168206829B182787D
:10237000521E12EA171F04D052E00089B8421BD93E
:102380004EE000F055FC054601281AD9681C32D0F1
:1023900020688169A9423DD876B1E168FFF707FF5F
:1023A00005000CD0012D0CD0681C24D00021206821
:1023B00000F02DFDF8B906E00420BDE8F08107200B
:1023C000FBE70220F9E720684FF40072002130306B
:1023D00000F016FD29462068FFF794FE21680026CC
:1023E0004FF00108C8620EE080F8048000212068E8
:1023F00000F00DFD08B10120DFE72068C16A491C2B
:10240000761CF6B2C16220688178B142ECD8C16A0C
:10241000891BC162E56029462068FFF773FE2061D1
:10242000E78007F00F013022206802EB41110844D9
:1024300060610020C1E710B50446042015E0206863
:1024400000F0E5FCB0B96269117861B1E52904D00A
:102450002E2902D0D17A09070ED500212046FFF798
:1024600074FF10B106E0042004E021690029E6D1E0
:10247000002801D00021216110BD70B50546002162
:1024800000F03DF80EE02969286800F0C0FC040067
:102490001FD168690078E52807D030B101212846AE
:1024A000FFF753FF0400EED013E02969286800F01D
:1024B000AEFC04000DD16E6920220021304600F0F0
:1024C0009FFC0B223046A96900F092FC296801208C
:1024D0000871204670BD10B50446C18800F00FF8A1
:1024E00000280BD12169206800F091FC002805D15B
:1024F0006269E521117022680121117110BD70B56A
:102500000D46C1808168044601291ED02068826979
:102510008A421AD921B90278032A04D1416A11B139
:102520008078060117E0E1600189A9420DD9406A6F
:1025300017E0206800F07CFB0146401C07D0022910
:1025400003D320688069884203D8022070BD01202F
:1025500070BDA81B85B2B542EBD2E1602068FFF7E1
:10256000D1FD00EB1510206105F00F01302220682D
:1025700002EB411108446061002070BD10B518B92C
:10258000FEF72AFC002800D0012010BD10B514462B
:10259000012308B1042010BD052914D2DFE801F0A1
:1025A0001608030E1600FEF713FC80B2208002E02E
:1025B000FEF78AFC04E028B1012304E0FEF708FCE2
:1025C0002060F8E700230BB1012010BD002010BDF2
:1025D00070B51C4615460E4648B1042070BD29460C
:1025E0003046FEF721FC641EE4B205F50075002CB0
:1025F000F5D1002070BD10B518B9FEF76BFC0028AE
:1026000000D0012010BD70B51C4615460E4648B1DD
:10261000042070BD29463046FEF766FC641EE4B215
:1026200005F50075002CF5D1002070BD30B4054BC8
:10263000342410C383E8070030BC03F11001181FD5
:1026400000F056BB0C070010F0B5064600208D1AAE
:102650000F2701466D1C0BE05318A7EBE30403F0B2
:102660000703345DDC4004F001038B401843491C30
:10267000A942F1DBF0BD10B5044600F0BBF900281B
:1026800001D10021216010BD08B10B207047054B1E
:102690000022186800B1027001B10A7000201960B0
:1026A00070470000140000102DE9F7478BB00700B9
:1026B0000ED04FF0000802F01F0626F00102694616
:1026C0000CA8C7F80080FFF717FC050004D084E0D1
:1026D00009200EB0BDE8F08707A8069068460C995F
:1026E00000F044FA059C050001D104B9062516F056
:1026F0001C0F4AD055B1042D03D16846FFF7BDFE2B
:102700000546059C46F0080645B166E0E07A10F003
:10271000110F44D1700701D508255EE0300744D57C
:1027200000F0E2FAA073010AE173010C2174000EBB
:10273000607484F80B8084F81C8084F81D8084F811
:102740001E8084F81F802146009800F0D5FA81464B
:102750000021204600F0ACFC00990120B9F1000FE7
:10276000087120D000984946D0F82CA000F00EFC4B
:10277000050032D10099A9F10100C86051460098C6
:1027800000F045FB05000CD027E035BBE07AC10620
:1027900001D5042521E0B10703D5C00701D00725E5
:1027A0001BE0300701D546F0200600982146C06A9C
:1027B000C7E90704BE71009800F09EFA3861207FD7
:1027C000D4F81D1040EA0120C7E90280C7F818803C
:1027D000009838600098C088B880284679E72DE9CD
:1027E000F047884600219A4616460446196000F0D4
:1027F00087FF002803D1A079010602D50220BDE899
:10280000F087C00706D0D4E90210401A864270D97A
:1028100006466EE00720F2E7A068C10542D12268B3
:102820009178491E01EA502111F0FF0709D1F8B152
:102830001046616900F0FCF902281BD3411C3ED010
:10284000606161692068FFF75DFC98B100EB0709E2
:10285000750A25D020687A1981788A4200D9CD1B63
:10286000EBB240784A464146FFF7B2FE38BB06E07D
:102870002069E1E7A07940F08000A071BEE72168FF
:10288000087958B1CA6AA2EB0900A84206D208EB3F
:1028900040204FF40072303100F0AAFA6D021EE0C1
:1028A000C4F818902089C0F30800C0F50075B5423F
:1028B00000D93546A169206800F0A9FA28B1A079AD
:1028C00040F08000A071012099E720892168C0F3C1
:1028D0000800303001442A46404600F089FAA068DA
:1028E000A8442844A060DAF800004119761BCAF811
:1028F0000010002E90D1002081E733B599B00C462E
:10290000012204A919A8FFF7F7FA002852D1049868
:102910000B90CDF828D004A8199900F027F90028C9
:1029200048D10998E8B300F10B01152212A800F074
:102930005FFA1C2204A90BA800F05AFA21460BA842
:1029400000F014F970B3042834D10BA8FFF795FDFB
:1029500000282FD1109C13220DF14A0104F10D0023
:1029600000F046FA9DF84800012540F02000E07292
:10297000049805710D990698884232D0E07AC00615
:102980002FD52146049800F0B7F901460498FFF7C7
:10299000B9FB010012D0049800F039FA049A5032C1
:1029A00001E006E008E0002804D150782E2807D086
:1029B00017E004201BB030BD0820FBE70220F9E738
:1029C00004980078032806D104990D98496A884232
:1029D00001D1002100E00D99104600F069FB049838
:1029E000057104A8FFF777FD0028E3D1049800F0F3
:1029F00079FBDFE770B5044600F082FE002834D191
:102A0000A179890631D5E169206800F000FA002833
:102A10002BD1256AE87A40F02000E872207B2877E5
:102A2000A089000A6877E068000CA877E068000ECB
:102A3000E8772846216900F03BFB00F055F9A875BE
:102A4000010AE975010C2976000E68760020A87449
:102A5000E874A07920F02000A0712168012008719D
:102A60002068BDE8704000F03DBB70BD71B591B00D
:102A70000122694611A8FFF73FFA040044D10EA8CD
:102A800006906846119900F071F804003CD1059E4B
:102A900056B1F07AC00700D007243146009800F004
:102AA0002BF9054614B12FE00624F6E7F07AC006AC
:102AB0001AD5022D01D2022426E01C22694607A85D
:102AC00000F096F9022107A80995FFF718FD040008
:102AD0001AD107A8FFF7AFFC040003D0042C03D0E1
:102AE00014B111E007240FE06846FFF7F4FC04007E
:102AF0000AD12DB12946009800F048FA040003D10C
:102B0000009800F0EFFA044612B0204670BD70B590
:102B1000054672B604246FF4D02201E0102C03D2D3
:102B2000200300F6FF7001E002EBC430884218D9A0
:102B3000102C01D2200302E0E003A0F5E02088423F
:102B400009D121462A46084600F096F921462A4630
:102B50000846FFF76BFD21462A46084600F08CF92F
:102B600002E0641C1D2CD9D962B670BD73B5044651
:102B7000019908782F2801D05C2801D1491C0191C6
:102B80000025A56001980078202805D20021204664
:102B9000FFF7B5FC65617CBD01A92046FFF752FB3C
:102BA0000028F8D100212046FFF7A9FCF8B92169D7
:102BB000206800F02CF9D0B961690A7872B1CA7A3C
:102BC00012070ED40B25A26900236D1E08D311F83D
:102BD000013B12F8016B9B1BF7D002E0042006E0DA
:102BE0002BB100212046FFF7B0FB0028DFD0A16900
:102BF000C97A28B10428CED14907CCD405207CBDA0
:102C00004907FCD46169C87AC006F7D5206800F08E
:102C100073F8A060C0E710B50446C1B20020FEF70B
:102C200003FE0020FEF7B6FC0128FAD0204610BDB6
:102C30002DE9F0410D460446022902D3A069A842BD
:102C400002D80120BDE8F0812078012804D00228B4
:102C500026D0032837D12FE0206A05EB550600EB7C
:102C60005621204600F0D3F868BBC6F30800204484
:102C7000761C90F83070206A00EB5621204600F058
:102C8000C6F800BBC6F308002044E90790F83000FE
:102C900047EA002001D00009D4E7C0F30B00D1E7D8
:102CA000206A00EB1521204600F0B1F858B9E8B2CF
:102CB00004EB4000008EC5E7206A00EBD5112046EA
:102CC00000F0A5F810B14FF0FF30BBE740F2FF1065
:102CD00000EA8500204490F83010D0F8310041EA35
:102CE000002020F07040ADE700487047A1A16DB909
:102CF000004A1047F11FFF1F0246488B1278032A33
:102D000002D1898A40EA0140704700001CB5FEF7F5
:102D10002AFEFFF703FA0F2000F0B2F94FF4E13476
:102D20002046FEF7EFFD1EA0FEF738FEFFF738F84D
:102D3000FEF7B4FF1FA0FEF731FE20484FF480439A
:102D4000036000204FF47A710090009A0190521CA9
:102D5000104600928A42F8D3BFF35F8FBFF34F8FC4
:102D6000BFF36F8F186880F3088844F2040000688E
:102D700080472046FEF7C6FD11A0FEF70FFE17A004
:102D8000FEF70CFEBFF34F8F0C48001D0168174A79
:102D900001F4E06111430160BFF34F8FFEE70000D3
:102DA000426F6F746C6F61646572205374617274EA
:102DB0000D0A00004A756D70210D0A0008ED00E053
:102DC000546869732073686F756C64206E657665EE
:102DD000722068617070656E0D0A0000526573653F
:102DE000742073797374656D0D0A00000400FA0590
:102DF00003E011F8013B00F8013B521EF9D2704785
:102E0000C9B201E000F8011B521EFBD270472DE948
:102E1000F041C56A0F460446BD422BD0217904F12A
:102E20003008D9B1607801232A464146FFF7EBFB11
:102E3000E0B900202071D4E907100844A8420DD958
:102E4000E67809E0E0690123054460782A464146B6
:102E5000FFF7D9FB761EF6B2012EF3D857B1607892
:102E600001233A464146FFF7B3FB10B10120BDE80C
:102E7000F081E7620020FAE730B4054B322410C33A
:102E800083E8070030BC03F11001181FFFF730BFC3
:102E90000C0700102DE9F04716460D46044602299E
:102EA00002D3A069A84202D80220BDE8F0872078AA
:102EB00006F0FF084FF00109012807D0022837D09B
:102EC000032846D0022084F80490EEE7206A05EB40
:102ED000550700EB57212046FFF799FF0028F2D154
:102EE000C7F3080020443030E90703D0017868F3C5
:102EF0001F1100E03146017084F80490206A7F1CA5
:102F000000EB57212046FFF782FF0028DBD1C7F3F3
:102F1000080121443031EA0702D0C6F3071205E068
:102F20000A78C6F3032302F0F0021A430A70CAE7D4
:102F3000206A00EB15212046FFF769FF0028C2D167
:102F4000E9B204EB4101320A81F8308081F8312086
:102F5000B9E7206A00EBD5112046FFF758FF00289B
:102F6000B1D140F2FF1101EA850121444FF07043D5
:102F7000D1F8312003EA0222324301F8302F130A3C
:102F80004B70130C8B70120ECA709CE72DE9F04148
:102F90000F460546022918D3A869B84215D900265C
:102FA0004FF001081DE039462846FFF741FE0400B6
:102FB0001AD0012C09D0601C09D0002239462846BD
:102FC000FFF768FF06000FD103E002260CE00126A0
:102FD0000AE02869411C03D0401C286185F805805F
:102FE0002746A869B842DED83046BDE8F081000027
:102FF00002490120087014394860704748090010E0
:1030000070B5184EB089050AC4B21748002100688F
:1030100020E04278AA421CD1012A0CD0022A04D016
:10302000042A05D0052A04D102E041790C4600E0CB
:103030008178A1420CD13060022D07D000787060F9
:103040000146308A814200DD706070BD4088F6E73D
:10305000491C18440378002BDBD10020706001204C
:10306000307270BD34090010B00000100349002018
:1030700048700870022014394860704748090010F1
:1030800010B5044600F001013220FDF7C8FB04F042
:1030900002013320FDF7C3FB04F004013420FDF7E7
:1030A000BEFB04F00801BDE810403520FDF7B7BBBA
:1030B00081760A0AC2760A0C0275090E41757047BC
:1030C00010B5FDF7B3F900F043F900F027F901E07E
:1030D00000F0FEF9FDF784F90028F9D0BDE81040B2
:1030E00000F030B92DE9F04104460021FFF78FFED2
:1030F000050050D12078032846D16079F0B300262E
:1031000004F130004FF4007231460746E662FFF7E3
:1031100077FE552084F82E02AA2084F82F02522030
:1031200084F8300084F83100612284F83220412094
:1031300084F83300722184F8141284F8151284F88C
:10314000160284F81722206984F81802010A84F80C
:103150001912010C84F81A12000E84F81B02E068A0
:1031600084F81C02010A84F81D12010C000E84F878
:103170001E1284F81F026078012300E004E0394643
:103180006269FFF740FA6671002260781146FFF726
:10319000FDF900B101252846BDE8F08101004FF09E
:1031A000000005D0022905D0032900D1024870474C
:1031B000024870470248704700C0094000C0004004
:1031C000008009402DE9F34F83B0002001900120D9
:1031D000FDF720F84FF0000B4FF0FF37DA465E4660
:1031E000D94601240090002523E004986219424347
:1031F0000098002103090007A0FB04C803FB048317
:1032000000FB013160460023FCF788FFB0F1004F5E
:1032100001D94042491C4A1EB2F5803F08D2B8424B
:1032200006D207004FF000090E46AB46A24606D074
:103230006D1CA542D9D317B1641C0F2CD3D956EA03
:10324000090014D00AEB0B01A1FB0625002303FBA8
:103250000653009801FB0933000900FB0AF0002126
:10326000FCF75CFF0499814205D9081A04E00020AC
:1032700005B0BDE8F08F401A642148430499B0FBC3
:10328000F1F0032801D30198F2E70398012819D03F
:10329000042826D0FFF782FF017B41F080010173F3
:1032A000310A41EA096101710670017B01F07F0179
:1032B00001730BF00F0242EA0A1180F82810012076
:1032C0000190D5E71348017B41F080010173310A79
:1032D00041EA096101710670017B01F07F01017310
:1032E0000FE00D48C16841F08001C160310A41EA38
:1032F0000961C9B24160F1B20160C16801F07F01AA
:10330000C1604FEA0A710BF00F0242EA116181625B
:10331000D5E700000000014000400A40084910B510
:103320000C20C1F804024021802000F0ABF84021BD
:10333000002000F0A7F8BDE81040FDF752BF0000E4
:1033400000C00820FDF756BF80210020FDF7A1BF77
:103350001648416F21F007014167416F41F00101BB
:103360004167816F21F007018167816F41F00101A1
:103370008167D0F8241121F00701C0F82411D0F89A
:10338000241141F00101C0F82411094850F8C41F6C
:1033900041F000410160074916200860091D122311
:1033A0000A6833EA0200FBD1FDF724BF00C00240E7
:1033B00000C00F40F4CF08200149086070470000AA
:1033C000B00000102DE9F04115460646002372B604
:1033D00000F00F00012202EB80021948C0F82822F9
:1033E000D0F820221205FBD5D0F82022C2F3090420
:1033F000AC4205DD2246294612A0FEF7CFFA1AE0BC
:103400000CB1002210E0D0F818020FE0970701D1AC
:10341000D0F818328B541B0AD743BF0703D1D0F81A
:103420002872FF0702D0521CAA42EFDB3046FDF79C
:10343000F4FEFDF7C1FE62B62046BDE8F081000053
:1034400000C008204E6F7420656E6F75676820722B
:103450006F6F6D20696E20627566666572202867E1
:103460006F74202564206E656564202564292C20F6
:103470006661696C696E6720746F20726561640DA6
:103480000A00000030B572B6104A4FF48074C2F8DA
:1034900008420307DB0E43EAD0100123D2F844525E
:1034A00083401D43C2F84452C2F84802C2F84C128D
:1034B00062B6D2F80002C005FBD5C2F80842D2F8C5
:1034C00034020343C2F8343230BD000000C008208B
:1034D0002DE9FF414A4ED6F80002C00702D0012074
:1034E000C6F80802D6F80002000721D50820C6F861
:1034F0000802FDF788FE0446000702D541A0FEF74A
:103500004DFAE0060FD543A0FEF748FAFEF7DCF9C6
:1035100040218020FFF7B6FF40210020FFF7B2FFD7
:103520000220FDF7C6FEA00702D53EA0FEF736FA40
:10353000D6F8000240075DD5D6F830523DA02946A6
:10354000FEF72CFAE80725D00020FDF775FE0446AB
:10355000400706D521463AA0FEF720FAFDF780F88D
:1035600018E0E00706D021463AA0FEF717FAFDF76B
:103570003DF80FE0082269460020FFF723FF0746C9
:10358000082269460020FFF71DFF3A46214636A073
:10359000FEF704FAA80717D58020FDF74DFEC107F6
:1035A0002AD0C0F38014C0F34013C0F30012C0F35C
:1035B000C0018DE81E0000F00101C0F38003C0F3DC
:1035C00040023348FEF7EAF9A80810D00324082582
:1035D000D6F83002284206D0E007C4F3430141EA9E
:1035E0001060FDF729FE6D00641C202CF0DB042028
:1035F000C6F80802BDE8FF81FCF7C0FFE4E7000061
:1036000000C008205553423A53757370656E640DBF
:103610000A0000005553423A4275732052657365A3
:10362000740D0A005553423A436F6E6E6563740D14
:103630000A000000494E5453543A2025780D0A00E0
:1036400045503053455455505F53543A20307825F7
:10365000780D0A004550304F55545F53543A20308E
:103660007825780D0A0000004550304F55543A2017
:1036700073707572696F757320696E746572727597
:1036800070742028307825782C202564290D0A00B4
:103690004038000070B5150002464FF0000472B6C5
:1036A00000F00F004FF0020303EB8000134BC3F850
:1036B0002802C3F8245208D10EE0CE7851F8040B4A
:1036C00066F31F60C3F81C02241DD3F8280280078C
:1036D00005D5AC42F1DB02E00020C3F81C02104625
:1036E000FDF79BFDFDF7F0FDBFF36F8F62B6AC42B7
:1036F00001DD284670BD204670BD000000C00820D6
:1037000010B5016829B10A781AB1CA888088824246
:1037100001D0092010BD4878FEF76DFFC007F9D031
:10372000032010BD70B572B63325064C2560C4E980
:103730000330C4E9011204F114012046FFF7D8FA5E
:1037400062B670BD0C0700102DE9F041194C2368DA
:1037500003B92060174B0020174D5B6803E00E5C37
:103760001F18401CEE559042F9D398184FF400787A
:10377000606040451AD1114D4FF47A76216828686F
:10378000B0FBF6F0FFF7C3F90B4F143F3868002881
:103790000DD128684346B0FBF6F0074A2168FFF7D1
:1037A000C1FF3868002802D1606020600020BDE8B9
:1037B000F0810000A000001034070010000000108D
:1037C000809A90418E418F804545454949498E8F69
:1037D0009092924F994F555559999A9B9C9D9E9FB7
:1037E00041494F55A5A5A6A7A8A9AAABAC21AEAF44
:1037F000B0B1B2B3B4B5B6B7B8B9BABBBCBDBEBF51
:10380000C0C1C2C3C4C5C6C7C8C9CACBCCCDCECF40
:10381000D0D1D2D3D4D5D6D7D8D9DADBDCDDDEDF30
:10382000E0E1E2E3E4E5E6E7E8E9EAEBECEDEEEF20
:10383000F0F1F2F3F4F5F6F7F8F9FAFBFCFDFEFF10
:10384000496E74657272757074206F6E20455030C9
:10385000494E3A2046453A25642053543A2564207F
:103860005354503A256420504F3A25642045504E19
:103870003A25642042313A25642042323A25640DCB
:103880000A000000A438000000000010B80000008A
:10389000BC1900005C390000B8000010D00C00001A
:1038A000CC190000000E27070087930300879303BD
:1038B000006CDC02000000000000000000000000BE
:1038C0000000000000F401000200120100020000EC
:1038D0000040501D156040000102000109021B005C
:1038E00001010080FA0904000000FE010203092121
:1038F0000B00F40100020101040309041A03530040
:103900006D006F006F00740068006900650057006B
:10391000610072006500120353006D006F006F00BC
:1039200074006800690065001A0353006D006F00A1
:103930006F007400680069006500200044004600C4
:103940005500000000000000000000000000000022
:0C3950000000000000000000000000006B
:04000005000000E512
:00000001FF
